:100000000C942F010C9460010C9460010C9460011D
:100010000C9460010C9460010C9460010C946001DC
:100020000C9460010C9460010C9460010C946001CC
:100030000C9460010C9460010C9460010C946001BC
:100040000C9460010C9460010C9460010C946001AC
:100050000C9460010C9460010C9460010C944A04AF
:100060000C9460010C9460010C9460010C9460018C
:100070000C9460010C9460010C9460010C9460017C
:100080000C9460010C9460010C9460010C9460016C
:100090000C9460010C9460010C9460010C9460015C
:1000A0000C9460010C9460010C9460010C9460014C
:1000B0000C9460010C9460010C9460010C9460013C
:1000C0000C9460010C9460010C9460010C9460012C
:1000D0000C9460010C9460010C9460010C9460011C
:1000E0000C9460010C94A3020C94E5010C94A402FE
:1000F0000C9411020C94F9010C94E2010C94EB01A4
:100100000C9415020C9407020C9493060C940302B1
:100110000C94C4010C94F5010C94BF010C94D6010D
:100120000C940B020C9444040C9462010C94DA01BC
:100130000C94DE010C94FD010C94EF0100002100F1
:10014000240027002A002D003000330001010000A8
:10015000040107010A0100002200250028002B00ED
:100160002E003100340002010000050108010B01DE
:1001700000000A0B02090C0D0E0807030401000021
:10018000000000000000000000000000000000006F
:10019000000000000000000000000000121110002C
:1001A000000000000000000000000000000000004F
:1001B00000000000000000002000230026002900AD
:1001C0002C002F003200000100000301060109018C
:1001D00005050505070508080808020202020A0AC3
:1001E00008080404040401010101010101010303E1
:1001F000030303030303040707070C0C0C0C0C0C8C
:100200000C0C0202020206060606060606060B0B88
:100210000B0B0B0B0B0B01021020200808102040C9
:1002200010204080020102010804020101020408BA
:100230001020408080402010080402018004020148
:100240008040201008040201080402010102040891
:1002500010204080010204081020408093061124E1
:100260001FBECFEFD1E2DEBFCDBF00E00CBF12E07A
:10027000A0E0B2E0EAE1F0E100E00BBF02C00790CD
:100280000D92A832B107D9F722E0A8E2B2E001C08E
:100290001D92AD34B207E1F711E0CFE2D1E000E00A
:1002A00006C021970109802FFE010E940308CE326B
:1002B000D10780E00807A9F70E94D9040C940B0825
:1002C0000C940000AF92BF92CF92DF92EF92FF9218
:1002D0000F931F93CF93DF936C017B018B01040F6E
:1002E000151FEB015E01AE18BF08C017D10759F00A
:1002F0006991D601ED91FC910190F081E02DC6014C
:100300001995892B79F7C501DF91CF911F910F9135
:10031000FF90EF90DF90CF90BF90AF900895282F7F
:1003200030E0F901E059FE4F9491F901EA5EFD4F8A
:10033000449120533E4FF9012491222309F435C002
:10034000992311F191509231F8F4E92FF0E08827C8
:10035000E355FE4F8F4F0C940308DE01E201BF010D
:10036000D601DA01C401E501EB01EF01F501F90164
:10037000FD0103020702C4010B0211021502809164
:1003800080008F7780938000E22FF0E0EE0FFF1F58
:10039000EA5AFE4FA591B4918FB7F894EC91611190
:1003A00048C040954E234C938FBF089580918000A4
:1003B0008F7DE8CF80918000877FE4CF84B58F77F1
:1003C00084BDE2CF84B58F7DFBCF8091B0008F7765
:1003D0008093B000D9CF8091B0008F7DF9CF80910C
:1003E00090008F7780939000CFCF809190008F7D89
:1003F000F9CF80919000877FF5CF8091A0008F7713
:100400008093A000C1CF8091A0008F7DF9CF809113
:10041000A000877FF5CF809120018F778093200106
:10042000B3CF809120018F7DF9CF80912001877F0C
:10043000F5CF4E2BB8CFCF93DF9390E0FC01EA5E6F
:10044000FD4F249180539E4FFC0184918823D1F06D
:1004500090E0880F991FFC01E45CFE4FA591B491D8
:10046000FC01EA5AFE4FC591D49161110EC09FB7AD
:10047000F8948C91E22FE0958E238C932881E223CF
:10048000E8839FBFDF91CF9108958FB7F894EC91E7
:10049000E22BEC938FBFF6CF3FB7F89480912D02FB
:1004A00090912E02A0912F02B091300226B5A89B08
:1004B00005C02F3F19F00196A11DB11D3FBFBA2FF6
:1004C000A92F982F8827BC01CD01620F711D811DB6
:1004D000911D42E0660F771F881F991F4A95D1F73B
:1004E00008958F929F92AF92BF92CF92DF92EF9238
:1004F000FF924B015C010E944C026B017C010E9447
:100500004C026C197D098E099F09683E7340810574
:100510009105A8F321E0821A9108A108B10888EE9C
:10052000C80E83E0D81EE11CF11C81149104A104C3
:10053000B10429F7FF90EF90DF90CF90BF90AF907C
:100540009F908F900895089590E080E008958F9295
:100550009F92AF92BF920F931F93CF93DF93CDB72C
:10056000DEB7A1970FB6F894DEBF0FBECDBF19A2BC
:10057000423008F44AE08E010F5D1F4F842E912C0B
:10058000B12CA12CA50194010E94E107E62FB9012D
:10059000CA01EA3044F5E05DD801EE938D01232BCA
:1005A000242B252B79F790E080E0109769F0FD016E
:1005B00001900020E9F73197AF014A1B5B0BBD01A9
:1005C00085E392E00E946201A1960FB6F894DEBF27
:1005D0000FBECDBFDF91CF911F910F91BF90AF9014
:1005E0009F908F900895E95CD7CFFC010190002087
:1005F000E9F73197AF01481B590BBC0185E392E045
:100600000C946201CF93DF93EC0160E08E810E9435
:100610008F0161E08E810E948F0160E08E810E94D7
:100620008F018BE891E00197F1F7DF91CF91089569
:10063000CF92DF92EF92FF920F931F93CF93DF93AE
:100640006C017C0187E0E80EF11CD0E0C0E0062FD1
:1006500010E0B8010C2E02C0759567950A94E2F778
:100660006170F70181917F010E948F012196C43052
:10067000D10579F7C601DF91CF911F910F91FF90BE
:10068000EF90DF90CF900C940203CF92DF92EF9225
:10069000FF920F931F93CF93DF93EC01F62E642FFD
:1006A0008C810E948F018D818F3F19F060E00E9444
:1006B0008F010F2D10E08F8584FF25C06E0187E02C
:1006C000C80ED11CF12CE12CB8010E2C02C075957E
:1006D00067950A94E2F76170F60181916F010E94BB
:1006E0008F01FFEFEF1AFF0A88E0E816F10461F7C7
:1006F000CE01DF91CF911F910F91FF90EF90DF908E
:10070000CF900C940203B80184E0759567958A95A3
:10071000E1F7CE010E9418036F2DCE01DF91CF913A
:100720001F910F91FF90EF90DF90CF900C941803E2
:1007300040E0682F85E392E00C944503CF93DF936C
:10074000823029F4909144029860909344028093FF
:1007500048021092490280E480934A0280E180932B
:100760004B0280E580934C0261E0809139020E9447
:100770001B0280913A028F3F19F061E00E941B0238
:1007800061E080913B020E941B02C5E3D2E09E0122
:10079000255332408091440284FD0BC084E090E0F8
:1007A00021962817390744F461E08E810E941B02CC
:1007B000EECF88E090E0F4CF8BE39DE00197F1F776
:1007C00060E0809139020E948F0160E080913B02DD
:1007D0000E948F0180913A028F3F19F060E00E94E1
:1007E0008F018091440284FD39C063E085E392E08B
:1007F0000E941803CBE4D6E4CE010197F1F763E041
:1008000085E392E00E9418032197F1F763E085E306
:1008100092E00E94180383E592E00197F1F762E00D
:1008200085E392E00E9418038091440280620E9456
:10083000980384E0809345028CE00E94980381E055
:100840000E9498038BE39FE10197F1F782E0809388
:10085000460286E0DF91CF910C94980380620E945B
:1008600098038BE496E40197F1F78091440280624B
:100870000E94980383E592E00197F1F7809144028A
:1008800080620E949803D0CF41E00E94450381E03E
:1008900090E008951F920F920FB60F9211242F939C
:1008A0003F938F939F93AF93BF9380912902909131
:1008B0002A02A0912B02B0912C023091280223E051
:1008C000230F2D3758F50196A11DB11D2093280245
:1008D0008093290290932A02A0932B02B0932C02BA
:1008E00080912D0290912E02A0912F02B0913002A2
:1008F0000196A11DB11D80932D0290932E02A0930D
:100900002F02B0933002BF91AF919F918F913F9191
:100910002F910F900FBE0F901F90189526E8230F70
:100920000296A11DB11DD2CFCF92DF92EF92FF921E
:100930000F931F93E82FF92F05C0015011092109CA
:10094000310961F1908196239417B9F305C00150E4
:1009500011092109310911F1908196239413F7CFE0
:10096000C12CD12CE12CF12C0AC08FEFC81AD80A67
:10097000E80AF80A0C151D052E053F0579F080815F
:100980008623841791F36C2D7D2D8E2D9F2D1F9125
:100990000F91FF90EF90DF90CF90089560E070E0AE
:1009A00080E090E01F910F91FF90EF90DF90CF904B
:1009B0000895789484B5826084BD84B5816084BDD7
:1009C00085B5826085BD85B5816085BD80916E00ED
:1009D000816080936E00109281008091810082601E
:1009E000809381008091810081608093810080915B
:1009F00080008160809380008091B100846080934A
:100A0000B1008091B00081608093B000809191002E
:100A10008260809391008091910081608093910029
:100A2000809190008160809390008091A10082600D
:100A30008093A1008091A10081608093A1008091AA
:100A4000A00081608093A00080912101826080934A
:100A500021018091210181608093210180912001F9
:100A600081608093200180917A00846080937A0075
:100A700080917A00826080937A0080917A00816010
:100A800080937A0080917A00806880937A00109237
:100A9000C10061E086E00E941B0261E087E00E94E5
:100AA0001B0261E088E00E941B0261E089E00E9475
:100AB0001B0282E00E949E0361E08BE00E941B0209
:100AC00060E08AE00E941B0261E08CE00E941B0251
:100AD00061E08DE00E941B02E1E0809148028111FB
:100AE000E0E0E195F0E0EB5CFD4F848980680E94D6
:100AF00098038CE092E00E94F502E0914802E23017
:100B000008F0F6C0E150F0E0EB5CFD4F84898068AE
:100B10000E94980383E192E00E94F502C0E1D0E0D8
:100B20008CE10E94980364E670E080E090E00E940F
:100B300071022197A9F7C0E2D2E09AEDE92E91E087
:100B4000F92E2BE3C22E2FE1D22E30E0A32E30E07F
:100B5000B32E60E08BE00E948F0162E070E080E0E5
:100B600090E00E94710261E08BE00E948F016AE0D8
:100B700070E080E090E00E94710260E08BE00E94F3
:100B80008F01FE016491F7018491E82FF0E0EE0FF0
:100B9000FF1FEA54FE4F8591949100E412E42FE088
:100BA00030E0462F0E94940461157105810591057E
:100BB00029F06F5F7F4F8F4F9F4F9F700E94E80615
:100BC00026E933E44BE05DE30E944C0720E030E08F
:100BD00040E05FE30E944C070E94B0066093310240
:100BE000709332028093330290933402E1E080915B
:100BF00048028111E0E0E195F0E0EB5CFD4F848973
:100C000080680E94980381E00E949803C6010197C2
:100C1000F1F78FE192E00E94F5024090310250908E
:100C2000320260903302709034024AE0C301B20194
:100C300077FE0EC041E06DE285E392E00E9445033D
:100C400066277727CB0164197509860997094AE059
:100C50000E94A70268EE73E080E090E00E947102BB
:100C60008091310290913202A0913302B09134020E
:100C700085369105A105B105ECF560E086E00E949E
:100C80008F0160E087E00E948F0160E088E00E94B1
:100C90008F0160E089E00E948F0164EF71E080E0E5
:100CA00090E00E94710261E08CE00E948F0160E0A0
:100CB0008DE00E948F0160E086E00E948F0161E07C
:100CC00087E00E948F0160E088E00E948F0160E071
:100CD00089E00E948F0168EE73E080E090E00E945E
:100CE0007102A114B10409F434CF0E94000031CF85
:100CF000E1E009CF61E086E00E948F0160E087E0DB
:100D00000E948F0161E088E00E948F0160E089E02D
:100D10000E948F0160E08CE00E948F0161E08DE015
:100D20000E948F01DECFE5E3F2E01382128284E0BD
:100D300092E09183808314828FEF858381E08683A4
:100D400082E0878383E0808784E0818785E08287F3
:100D50001386148615861686178681E00C949E03EA
:100D60000E94B7066894B1110C94460708950E943A
:100D70002B0788F09F5798F0B92F9927B751B0F0FB
:100D8000E1F0660F771F881F991F1AF0BA95C9F70F
:100D900014C0B13091F00E944507B1E008950C9461
:100DA0004507672F782F8827B85F39F0B93FCCF314
:100DB000869577956795B395D9F73EF4909580958C
:100DC000709561957F4F8F4F9F4F0895E89409C0AC
:100DD00097FB3EF490958095709561957F4F8F4F6E
:100DE0009F4F9923A9F0F92F96E9BB279395F69584
:100DF000879577956795B795F111F8CFFAF4BB0F02
:100E000011F460FF1BC06F5F7F4F8F4F9F4F16C065
:100E1000882311F096E911C0772321F09EE8872FEF
:100E2000762F05C0662371F096E8862F70E060E0AB
:100E30002AF09A95660F771F881FDAF7880F969524
:100E4000879597F9089557FD9058440F551F59F00D
:100E50005F3F71F04795880F97FB991F61F09F3FA7
:100E600079F087950895121613061406551FF2CFD0
:100E70004695F1DF08C0161617061806991FF1CF20
:100E800086957105610508940895E894BB27662747
:100E90007727CB0197F908950E945F070C94D0073C
:100EA0000E94C20738F00E94C90720F0952311F074
:100EB0000C94B9070C94BF0711240C9446070E94A8
:100EC000230770F3959FC1F3950F50E0551F629F64
:100ED000F001729FBB27F00DB11D639FAA27F00D93
:100EE000B11DAA1F649F6627B00DA11D661F829FBA
:100EF0002227B00DA11D621F739FB00DA11D621F9F
:100F0000839FA00D611D221F749F3327A00D611DBB
:100F1000231F849F600D211D822F762F6A2F11249D
:100F20009F5750409AF0F1F088234AF0EE0FFF1FD0
:100F3000BB1F661F771F881F91505040A9F79E3F27
:100F4000510580F00C94B9070C9446075F3FE4F319
:100F5000983ED4F3869577956795B795F795E7957D
:100F60009F5FC1F7FE2B880F911D9695879597F986
:100F7000089597F99F6780E870E060E008959FEF1B
:100F800080EC089500240A94161617061806090620
:100F9000089500240A9412161306140605060895EF
:100FA000092E0394000C11F4882352F0BB0F40F477
:100FB000BF2B11F460FF04C06F5F7F4F8F4F9F4FB7
:100FC0000895A1E21A2EAA1BBB1BFD010DC0AA1F8A
:100FD000BB1FEE1FFF1FA217B307E407F50720F0A2
:100FE000A21BB30BE40BF50B661F771F881F991F1D
:100FF0001A9469F760957095809590959B01AC0166
:10100000BD01CF010895EE0FFF1F881F8BBF079012
:0A101000F691E02D1994F894FFCF3B
:10101A000000000044046201A402A3025465616D49
:10102A0020360032332C32342C32352C32360044FE
:08103A002D28636D293A200006
:00000001FF
